:020000040000FA
:1000000083168601FF3085008312860105181228A9
:1000100003308E000F3086003820860138208E0B8A
:100020000A28062885181E2803308E00F030860026
:100030003820860138208E0B1628062805192A2814
:1000400003308E00FF3086003820860138208E0B6A
:10005000222806288519062803308E000F308600D6
:100060003820F030860038208E0B2E288601062896
:10007000FF308C00FF308D008D0B3C288C0B3A2814
:02008000080076
:00000001FF
